{
  "contractName": "EnergyTrading",
  "abi": [
    {
      "inputs": [],
      "payable": false,
      "stateMutability": "nonpayable",
      "type": "constructor"
    },
    {
      "anonymous": false,
      "inputs": [
        {
          "indexed": false,
          "internalType": "uint256[]",
          "name": "_volume",
          "type": "uint256[]"
        },
        {
          "indexed": false,
          "internalType": "uint256[]",
          "name": "_price",
          "type": "uint256[]"
        },
        {
          "indexed": false,
          "internalType": "address[]",
          "name": "_users",
          "type": "address[]"
        }
      ],
      "name": "array_log",
      "type": "event"
    },
    {
      "anonymous": false,
      "inputs": [
        {
          "indexed": false,
          "internalType": "address",
          "name": "_user",
          "type": "address"
        },
        {
          "indexed": false,
          "internalType": "string",
          "name": "_bid_time",
          "type": "string"
        },
        {
          "indexed": false,
          "internalType": "string",
          "name": "_bid_type",
          "type": "string"
        },
        {
          "indexed": false,
          "internalType": "uint256[]",
          "name": "_volumn",
          "type": "uint256[]"
        },
        {
          "indexed": false,
          "internalType": "uint256[]",
          "name": "_price",
          "type": "uint256[]"
        }
      ],
      "name": "bid_log",
      "type": "event"
    },
    {
      "anonymous": false,
      "inputs": [
        {
          "indexed": false,
          "internalType": "uint256[]",
          "name": "_volumn",
          "type": "uint256[]"
        },
        {
          "indexed": false,
          "internalType": "uint256[]",
          "name": "_price",
          "type": "uint256[]"
        }
      ],
      "name": "get_log",
      "type": "event"
    },
    {
      "anonymous": false,
      "inputs": [
        {
          "indexed": false,
          "internalType": "int256[2]",
          "name": "l1p1",
          "type": "int256[2]"
        },
        {
          "indexed": false,
          "internalType": "int256[2]",
          "name": "l1p2",
          "type": "int256[2]"
        },
        {
          "indexed": false,
          "internalType": "int256[2]",
          "name": "l2p1",
          "type": "int256[2]"
        },
        {
          "indexed": false,
          "internalType": "int256[2]",
          "name": "l2p2",
          "type": "int256[2]"
        }
      ],
      "name": "line_pts",
      "type": "event"
    },
    {
      "anonymous": false,
      "inputs": [
        {
          "indexed": false,
          "internalType": "bool",
          "name": "",
          "type": "bool"
        },
        {
          "indexed": false,
          "internalType": "uint256",
          "name": "",
          "type": "uint256"
        },
        {
          "indexed": false,
          "internalType": "uint256",
          "name": "",
          "type": "uint256"
        },
        {
          "indexed": false,
          "internalType": "address[]",
          "name": "",
          "type": "address[]"
        },
        {
          "indexed": false,
          "internalType": "uint256[]",
          "name": "",
          "type": "uint256[]"
        },
        {
          "indexed": false,
          "internalType": "address[]",
          "name": "",
          "type": "address[]"
        },
        {
          "indexed": false,
          "internalType": "uint256[]",
          "name": "",
          "type": "uint256[]"
        }
      ],
      "name": "match_result",
      "type": "event"
    },
    {
      "constant": true,
      "inputs": [
        {
          "internalType": "address",
          "name": "",
          "type": "address"
        }
      ],
      "name": "balanceOf",
      "outputs": [
        {
          "internalType": "uint256",
          "name": "",
          "type": "uint256"
        }
      ],
      "payable": false,
      "stateMutability": "view",
      "type": "function"
    },
    {
      "constant": false,
      "inputs": [
        {
          "internalType": "uint256",
          "name": "_initialSupply",
          "type": "uint256"
        }
      ],
      "name": "SetTk",
      "outputs": [],
      "payable": false,
      "stateMutability": "nonpayable",
      "type": "function"
    },
    {
      "constant": false,
      "inputs": [
        {
          "internalType": "address",
          "name": "_account",
          "type": "address"
        },
        {
          "internalType": "uint256",
          "name": "_amount",
          "type": "uint256"
        }
      ],
      "name": "Deposit",
      "outputs": [],
      "payable": false,
      "stateMutability": "nonpayable",
      "type": "function"
    },
    {
      "constant": false,
      "inputs": [
        {
          "internalType": "address",
          "name": "_account",
          "type": "address"
        },
        {
          "internalType": "uint256",
          "name": "_amount",
          "type": "uint256"
        }
      ],
      "name": "Withdraw",
      "outputs": [],
      "payable": false,
      "stateMutability": "nonpayable",
      "type": "function"
    },
    {
      "constant": false,
      "inputs": [
        {
          "internalType": "address",
          "name": "_from",
          "type": "address"
        },
        {
          "internalType": "address",
          "name": "_to",
          "type": "address"
        },
        {
          "internalType": "uint256",
          "name": "_value",
          "type": "uint256"
        }
      ],
      "name": "TransferFrom",
      "outputs": [],
      "payable": false,
      "stateMutability": "nonpayable",
      "type": "function"
    },
    {
      "constant": false,
      "inputs": [
        {
          "internalType": "address",
          "name": "_user",
          "type": "address"
        },
        {
          "internalType": "string",
          "name": "_bid_time",
          "type": "string"
        },
        {
          "internalType": "string",
          "name": "_bid_type",
          "type": "string"
        },
        {
          "internalType": "uint256[]",
          "name": "_volumn",
          "type": "uint256[]"
        },
        {
          "internalType": "uint256[]",
          "name": "_price",
          "type": "uint256[]"
        }
      ],
      "name": "bid",
      "outputs": [],
      "payable": false,
      "stateMutability": "nonpayable",
      "type": "function"
    },
    {
      "constant": false,
      "inputs": [
        {
          "internalType": "address",
          "name": "_user",
          "type": "address"
        },
        {
          "internalType": "string",
          "name": "_bid_time",
          "type": "string"
        },
        {
          "internalType": "string",
          "name": "_bid_type",
          "type": "string"
        }
      ],
      "name": "getBid",
      "outputs": [
        {
          "internalType": "uint256[]",
          "name": "",
          "type": "uint256[]"
        },
        {
          "internalType": "uint256[]",
          "name": "",
          "type": "uint256[]"
        }
      ],
      "payable": false,
      "stateMutability": "nonpayable",
      "type": "function"
    },
    {
      "constant": false,
      "inputs": [],
      "name": "getArrayLog",
      "outputs": [],
      "payable": false,
      "stateMutability": "nonpayable",
      "type": "function"
    },
    {
      "constant": false,
      "inputs": [
        {
          "internalType": "address[]",
          "name": "_users",
          "type": "address[]"
        },
        {
          "internalType": "string",
          "name": "_bid_time",
          "type": "string"
        }
      ],
      "name": "match_bids",
      "outputs": [],
      "payable": false,
      "stateMutability": "nonpayable",
      "type": "function"
    }
  ],
  "bytecode": "0x608060405234801561001057600080fd5b50336000806101000a81548173ffffffffffffffffffffffffffffffffffffffff021916908373ffffffffffffffffffffffffffffffffffffffff1602179055506145f3806100606000396000f3fe608060405234801561001057600080fd5b50600436106100935760003560e01c8063c0d84ce511610066578063c0d84ce51461049c578063cb84918f1461050a578063e1fffcc414610514578063e34785ee14610562578063ec4766e61461059057610093565b806370a0823114610098578063778893ff146100f0578063884edad9146102ff5780639cdcb2b91461034d575b600080fd5b6100da600480360360208110156100ae57600080fd5b81019080803573ffffffffffffffffffffffffffffffffffffffff16906020019092919050505061082a565b6040518082815260200191505060405180910390f35b6102606004803603606081101561010657600080fd5b81019080803573ffffffffffffffffffffffffffffffffffffffff1690602001909291908035906020019064010000000081111561014357600080fd5b82018360208201111561015557600080fd5b8035906020019184600183028401116401000000008311171561017757600080fd5b91908080601f016020809104026020016040519081016040528093929190818152602001838380828437600081840152601f19601f820116905080830192505050505050509192919290803590602001906401000000008111156101da57600080fd5b8201836020820111156101ec57600080fd5b8035906020019184600183028401116401000000008311171561020e57600080fd5b91908080601f016020809104026020016040519081016040528093929190818152602001838380828437600081840152601f19601f820116905080830192505050505050509192919290505050610842565b604051808060200180602001838103835285818151815260200191508051906020019060200280838360005b838110156102a757808201518184015260208101905061028c565b50505050905001838103825284818151815260200191508051906020019060200280838360005b838110156102e95780820151818401526020810190506102ce565b5050505090500194505050505060405180910390f35b61034b6004803603604081101561031557600080fd5b81019080803573ffffffffffffffffffffffffffffffffffffffff16906020019092919080359060200190929190505050610afd565b005b61049a6004803603604081101561036357600080fd5b810190808035906020019064010000000081111561038057600080fd5b82018360208201111561039257600080fd5b803590602001918460208302840111640100000000831117156103b457600080fd5b919080806020026020016040519081016040528093929190818152602001838360200280828437600081840152601f19601f8201169050808301925050505050505091929192908035906020019064010000000081111561041457600080fd5b82018360208201111561042657600080fd5b8035906020019184600183028401116401000000008311171561044857600080fd5b91908080601f016020809104026020016040519081016040528093929190818152602001838380828437600081840152601f19601f820116905080830192505050505050509192919290505050610c12565b005b610508600480360360608110156104b257600080fd5b81019080803573ffffffffffffffffffffffffffffffffffffffff169060200190929190803573ffffffffffffffffffffffffffffffffffffffff16906020019092919080359060200190929190505050610fae565b005b6105126112bc565b005b6105606004803603604081101561052a57600080fd5b81019080803573ffffffffffffffffffffffffffffffffffffffff16906020019092919080359060200190929190505050611532565b005b61058e6004803603602081101561057857600080fd5b8101908080359060200190929190505050611647565b005b610828600480360360a08110156105a657600080fd5b81019080803573ffffffffffffffffffffffffffffffffffffffff169060200190929190803590602001906401000000008111156105e357600080fd5b8201836020820111156105f557600080fd5b8035906020019184600183028401116401000000008311171561061757600080fd5b91908080601f016020809104026020016040519081016040528093929190818152602001838380828437600081840152601f19601f8201169050808301925050505050505091929192908035906020019064010000000081111561067a57600080fd5b82018360208201111561068c57600080fd5b803590602001918460018302840111640100000000831117156106ae57600080fd5b91908080601f016020809104026020016040519081016040528093929190818152602001838380828437600081840152601f19601f8201169050808301925050505050505091929192908035906020019064010000000081111561071157600080fd5b82018360208201111561072357600080fd5b8035906020019184602083028401116401000000008311171561074557600080fd5b919080806020026020016040519081016040528093929190818152602001838360200280828437600081840152601f19601f820116905080830192505050505050509192919290803590602001906401000000008111156107a557600080fd5b8201836020820111156107b757600080fd5b803590602001918460208302840111640100000000831117156107d957600080fd5b919080806020026020016040519081016040528093929190818152602001838360200280828437600081840152601f19601f820116905080830192505050505050509192919290505050611773565b005b60016020528060005260406000206000915090505481565b60608061084d6143ee565b6002856040518082805190602001908083835b602083106108835780518252602082019150602081019050602083039250610860565b6001836020036101000a0380198251168184511680821785525050505050509050019150509081526020016040518091039020846040518082805190602001908083835b602083106108ea57805182526020820191506020810190506020830392506108c7565b6001836020036101000a038019825116818451168082178552505050505050905001915050908152602001604051809103902060008773ffffffffffffffffffffffffffffffffffffffff1673ffffffffffffffffffffffffffffffffffffffff168152602001908152602001600020604051806040016040529081600082018054806020026020016040519081016040528092919081815260200182805480156109b457602002820191906000526020600020905b8154815260200190600101908083116109a0575b5050505050815260200160018201805480602002602001604051908101604052809291908181526020018280548015610a0c57602002820191906000526020600020905b8154815260200190600101908083116109f8575b50505050508152505090507f1db7f5664f32a8ae4bd4bdf3504bfffe65d6c848f89698286ac1f38b0e271fe281600001518260200151604051808060200180602001838103835285818151815260200191508051906020019060200280838360005b83811015610a89578082015181840152602081019050610a6e565b50505050905001838103825284818151815260200191508051906020019060200280838360005b83811015610acb578082015181840152602081019050610ab0565b5050505090500194505050505060405180910390a1806000015181602001518191508090509250925050935093915050565b336000809054906101000a900473ffffffffffffffffffffffffffffffffffffffff1673ffffffffffffffffffffffffffffffffffffffff168173ffffffffffffffffffffffffffffffffffffffff1614610bc0576040517f08c379a00000000000000000000000000000000000000000000000000000000081526004018080602001828103825260118152602001807f55736572206e6f742043726561746f722100000000000000000000000000000081525060200191505060405180910390fd5b81600160008573ffffffffffffffffffffffffffffffffffffffff1673ffffffffffffffffffffffffffffffffffffffff16815260200190815260200160002060008282540392505081905550505050565b336000809054906101000a900473ffffffffffffffffffffffffffffffffffffffff1673ffffffffffffffffffffffffffffffffffffffff168173ffffffffffffffffffffffffffffffffffffffff1614610cd5576040517f08c379a00000000000000000000000000000000000000000000000000000000081526004018080602001828103825260118152602001807f55736572206e6f742043726561746f722100000000000000000000000000000081525060200191505060405180910390fd5b610cdd611b6c565b610ce78284611ccc565b610cef6122ce565b610cf761290d565b610cff612c61565b610d076112bc565b6000610d1161383d565b9050610d796015600081548110610d2457fe5b90600052602060002001600181548110610d3a57fe5b90600052602060002001546015600281548110610d5357fe5b90600052602060002001600181548110610d6957fe5b9060005260206000200154613dbc565b7ff000212ceff1debf83c61efc26eca7988984040db23067a59a34a87084e8b526816015600281548110610da957fe5b90600052602060002001600081548110610dbf57fe5b90600052602060002001546015600281548110610dd857fe5b90600052602060002001600181548110610dee57fe5b9060005260206000200154601660186019601b6040518088151515158152602001878152602001868152602001806020018060200180602001806020018581038552898181548152602001915080548015610e9e57602002820191906000526020600020905b8160009054906101000a900473ffffffffffffffffffffffffffffffffffffffff1673ffffffffffffffffffffffffffffffffffffffff1681526020019060010190808311610e54575b50508581038452888181548152602001915080548015610edd57602002820191906000526020600020905b815481526020019060010190808311610ec9575b50508581038352878181548152602001915080548015610f5257602002820191906000526020600020905b8160009054906101000a900473ffffffffffffffffffffffffffffffffffffffff1673ffffffffffffffffffffffffffffffffffffffff1681526020019060010190808311610f08575b50508581038252868181548152602001915080548015610f9157602002820191906000526020600020905b815481526020019060010190808311610f7d575b50509b50505050505050505050505060405180910390a150505050565b336000809054906101000a900473ffffffffffffffffffffffffffffffffffffffff1673ffffffffffffffffffffffffffffffffffffffff168173ffffffffffffffffffffffffffffffffffffffff1614611071576040517f08c379a00000000000000000000000000000000000000000000000000000000081526004018080602001828103825260118152602001807f55736572206e6f742043726561746f722100000000000000000000000000000081525060200191505060405180910390fd5b81600160008673ffffffffffffffffffffffffffffffffffffffff1673ffffffffffffffffffffffffffffffffffffffff168152602001908152602001600020541015611126576040517f08c379a00000000000000000000000000000000000000000000000000000000081526004018080602001828103825260158152602001807f496e73756666696369656e742062616c616e63652e000000000000000000000081525060200191505060405180910390fd5b600160008473ffffffffffffffffffffffffffffffffffffffff1673ffffffffffffffffffffffffffffffffffffffff1681526020019081526020016000205482600160008673ffffffffffffffffffffffffffffffffffffffff1673ffffffffffffffffffffffffffffffffffffffff1681526020019081526020016000205401101561121c576040517f08c379a00000000000000000000000000000000000000000000000000000000081526004018080602001828103825260158152602001807f5472616e73616374696f6e206f766572666c6f7721000000000000000000000081525060200191505060405180910390fd5b81600160008673ffffffffffffffffffffffffffffffffffffffff1673ffffffffffffffffffffffffffffffffffffffff1681526020019081526020016000206000828254039250508190555081600160008573ffffffffffffffffffffffffffffffffffffffff1673ffffffffffffffffffffffffffffffffffffffff1681526020019081526020016000206000828254019250508190555050505050565b7fa057c7b5419aff7ff10ed6c4b26dcadb960db6fab5c0d07343712ad5c666481f60046003600560405180806020018060200180602001848103845287818154815260200191508054801561133057602002820191906000526020600020905b81548152602001906001019080831161131c575b5050848103835286818154815260200191508054801561136f57602002820191906000526020600020905b81548152602001906001019080831161135b575b505084810382528581815481526020019150805480156113e457602002820191906000526020600020905b8160009054906101000a900473ffffffffffffffffffffffffffffffffffffffff1673ffffffffffffffffffffffffffffffffffffffff168152602001906001019080831161139a575b5050965050505050505060405180910390a17fa057c7b5419aff7ff10ed6c4b26dcadb960db6fab5c0d07343712ad5c666481f60076006600860405180806020018060200180602001848103845287818154815260200191508054801561146a57602002820191906000526020600020905b815481526020019060010190808311611456575b505084810383528681815481526020019150805480156114a957602002820191906000526020600020905b815481526020019060010190808311611495575b5050848103825285818154815260200191508054801561151e57602002820191906000526020600020905b8160009054906101000a900473ffffffffffffffffffffffffffffffffffffffff1673ffffffffffffffffffffffffffffffffffffffff16815260200190600101908083116114d4575b5050965050505050505060405180910390a1565b336000809054906101000a900473ffffffffffffffffffffffffffffffffffffffff1673ffffffffffffffffffffffffffffffffffffffff168173ffffffffffffffffffffffffffffffffffffffff16146115f5576040517f08c379a00000000000000000000000000000000000000000000000000000000081526004018080602001828103825260118152602001807f55736572206e6f742043726561746f722100000000000000000000000000000081525060200191505060405180910390fd5b81600160008573ffffffffffffffffffffffffffffffffffffffff1673ffffffffffffffffffffffffffffffffffffffff16815260200190815260200160002060008282540192505081905550505050565b336000809054906101000a900473ffffffffffffffffffffffffffffffffffffffff1673ffffffffffffffffffffffffffffffffffffffff168173ffffffffffffffffffffffffffffffffffffffff161461170a576040517f08c379a00000000000000000000000000000000000000000000000000000000081526004018080602001828103825260118152602001807f55736572206e6f742043726561746f722100000000000000000000000000000081525060200191505060405180910390fd5b81600160008060009054906101000a900473ffffffffffffffffffffffffffffffffffffffff1673ffffffffffffffffffffffffffffffffffffffff1673ffffffffffffffffffffffffffffffffffffffff168152602001908152602001600020819055505050565b336000809054906101000a900473ffffffffffffffffffffffffffffffffffffffff1673ffffffffffffffffffffffffffffffffffffffff168173ffffffffffffffffffffffffffffffffffffffff1614611836576040517f08c379a00000000000000000000000000000000000000000000000000000000081526004018080602001828103825260118152602001807f55736572206e6f742043726561746f722100000000000000000000000000000081525060200191505060405180910390fd5b6040518060400160405280848152602001838152506002866040518082805190602001908083835b60208310611881578051825260208201915060208101905060208303925061185e565b6001836020036101000a0380198251168184511680821785525050505050509050019150509081526020016040518091039020856040518082805190602001908083835b602083106118e857805182526020820191506020810190506020830392506118c5565b6001836020036101000a038019825116818451168082178552505050505050905001915050908152602001604051809103902060008873ffffffffffffffffffffffffffffffffffffffff1673ffffffffffffffffffffffffffffffffffffffff1681526020019081526020016000206000820151816000019080519060200190611974929190614408565b506020820151816001019080519060200190611991929190614408565b509050507f235d9490a8bb5d45e52b9df37374e9b953b504a299e88cabbfa510532019b2df8686868686604051808673ffffffffffffffffffffffffffffffffffffffff1673ffffffffffffffffffffffffffffffffffffffff16815260200180602001806020018060200180602001858103855289818151815260200191508051906020019080838360005b83811015611a39578082015181840152602081019050611a1e565b50505050905090810190601f168015611a665780820380516001836020036101000a031916815260200191505b50858103845288818151815260200191508051906020019080838360005b83811015611a9f578082015181840152602081019050611a84565b50505050905090810190601f168015611acc5780820380516001836020036101000a031916815260200191505b50858103835287818151815260200191508051906020019060200280838360005b83811015611b08578082015181840152602081019050611aed565b50505050905001858103825286818151815260200191508051906020019060200280838360005b83811015611b4a578082015181840152602081019050611b2f565b50505050905001995050505050505050505060405180910390a1505050505050565b60036000611b7a9190614455565b60046000611b889190614455565b60056000611b969190614476565b60066000611ba49190614455565b60076000611bb29190614455565b60086000611bc09190614476565b60096000611bce9190614455565b600a6000611bdc9190614455565b600b6000611bea9190614476565b600c6000611bf89190614455565b600d6000611c069190614455565b600e6000611c149190614476565b600f6000611c229190614455565b60106000611c309190614455565b60116000611c3e9190614476565b60126000611c4c9190614455565b60136000611c5a9190614455565b60146000611c689190614476565b60166000611c769190614476565b60176000611c849190614455565b60186000611c929190614455565b60196000611ca09190614476565b601a6000611cae9190614455565b601b6000611cbc9190614455565b60156000611cca9190614497565b565b60008090505b8151811015611fca57606080611ce66143ee565b6002866040518082805190602001908083835b60208310611d1c5780518252602082019150602081019050602083039250611cf9565b6001836020036101000a038019825116818451168082178552505050505050905001915050908152602001604051809103902060405180807f6275790000000000000000000000000000000000000000000000000000000000815250600301905090815260200160405180910390206000868681518110611d9957fe5b602002602001015173ffffffffffffffffffffffffffffffffffffffff1673ffffffffffffffffffffffffffffffffffffffff16815260200190815260200160002060405180604001604052908160008201805480602002602001604051908101604052809291908181526020018280548015611e3557602002820191906000526020600020905b815481526020019060010190808311611e21575b5050505050815260200160018201805480602002602001604051908101604052809291908181526020018280548015611e8d57602002820191906000526020600020905b815481526020019060010190808311611e79575b5050505050815250509050806020015192508060000151915060008090505b8351811015611fb9576003848281518110611ec357fe5b602002602001015190806001815401808255809150509060018203906000526020600020016000909192909190915055506004838281518110611f0257fe5b602002602001015190806001815401808255809150509060018203906000526020600020016000909192909190915055506005868681518110611f4157fe5b602002602001015190806001815401808255809150509060018203906000526020600020016000909192909190916101000a81548173ffffffffffffffffffffffffffffffffffffffff021916908373ffffffffffffffffffffffffffffffffffffffff160217905550508080600101915050611eac565b505050508080600101915050611cd2565b5060008090505b81518110156122c957606080611fe56143ee565b6002866040518082805190602001908083835b6020831061201b5780518252602082019150602081019050602083039250611ff8565b6001836020036101000a038019825116818451168082178552505050505050905001915050908152602001604051809103902060405180807f73656c6c0000000000000000000000000000000000000000000000000000000081525060040190509081526020016040518091039020600086868151811061209857fe5b602002602001015173ffffffffffffffffffffffffffffffffffffffff1673ffffffffffffffffffffffffffffffffffffffff1681526020019081526020016000206040518060400160405290816000820180548060200260200160405190810160405280929190818152602001828054801561213457602002820191906000526020600020905b815481526020019060010190808311612120575b505050505081526020016001820180548060200260200160405190810160405280929190818152602001828054801561218c57602002820191906000526020600020905b815481526020019060010190808311612178575b5050505050815250509050806020015192508060000151915060008090505b83518110156122b85760068482815181106121c257fe5b60200260200101519080600181540180825580915050906001820390600052602060002001600090919290919091505550600783828151811061220157fe5b60200260200101519080600181540180825580915050906001820390600052602060002001600090919290919091505550600886868151811061224057fe5b602002602001015190806001815401808255809150509060018203906000526020600020016000909192909190916101000a81548173ffffffffffffffffffffffffffffffffffffffff021916908373ffffffffffffffffffffffffffffffffffffffff1602179055505080806001019150506121ab565b505050508080600101915050611fd1565b505050565b6000806000806000600190505b6003805490508110156125e957600381815481106122f557fe5b906000526020600020015493506004818154811061230f57fe5b906000526020600020015492506005818154811061232957fe5b9060005260206000200160009054906101000a900473ffffffffffffffffffffffffffffffffffffffff16915060018103945060008090505b600086101580156123895750846003878154811061237c57fe5b9060005260206000200154105b156124a7576003868154811061239b57fe5b9060005260206000200154600360018801815481106123b657fe5b9060005260206000200181905550600486815481106123d157fe5b9060005260206000200154600460018801815481106123ec57fe5b90600052602060002001819055506005868154811061240757fe5b9060005260206000200160009054906101000a900473ffffffffffffffffffffffffffffffffffffffff166005600188018154811061244257fe5b9060005260206000200160006101000a81548173ffffffffffffffffffffffffffffffffffffffff021916908373ffffffffffffffffffffffffffffffffffffffff160217905550600086141561249c57600190506124a7565b600186039550612362565b8015612543578460036000815481106124bc57fe5b90600052602060002001819055508360046000815481106124d957fe5b90600052602060002001819055508260056000815481106124f657fe5b9060005260206000200160006101000a81548173ffffffffffffffffffffffffffffffffffffffff021916908373ffffffffffffffffffffffffffffffffffffffff1602179055506125db565b846003600188018154811061255457fe5b9060005260206000200181905550836004600188018154811061257357fe5b9060005260206000200181905550826005600188018154811061259257fe5b9060005260206000200160006101000a81548173ffffffffffffffffffffffffffffffffffffffff021916908373ffffffffffffffffffffffffffffffffffffffff1602179055505b5080806001019150506122db565b50600080600080600190505b600680549050811015612903576006818154811061260f57fe5b906000526020600020015493506007818154811061262957fe5b906000526020600020015492506008818154811061264357fe5b9060005260206000200160009054906101000a900473ffffffffffffffffffffffffffffffffffffffff16915060018103975060008090505b600089101580156126a357508460068a8154811061269657fe5b9060005260206000200154115b156127c157600689815481106126b557fe5b9060005260206000200154600660018b01815481106126d057fe5b9060005260206000200181905550600789815481106126eb57fe5b9060005260206000200154600760018b018154811061270657fe5b90600052602060002001819055506008898154811061272157fe5b9060005260206000200160009054906101000a900473ffffffffffffffffffffffffffffffffffffffff16600860018b018154811061275c57fe5b9060005260206000200160006101000a81548173ffffffffffffffffffffffffffffffffffffffff021916908373ffffffffffffffffffffffffffffffffffffffff16021790555060008914156127b657600190506127c1565b60018903985061267c565b801561285d578460066000815481106127d657fe5b90600052602060002001819055508360076000815481106127f357fe5b906000526020600020018190555082600860008154811061281057fe5b9060005260206000200160006101000a81548173ffffffffffffffffffffffffffffffffffffffff021916908373ffffffffffffffffffffffffffffffffffffffff1602179055506128f5565b84600660018b018154811061286e57fe5b906000526020600020018190555083600760018b018154811061288d57fe5b906000526020600020018190555082600860018b01815481106128ac57fe5b9060005260206000200160006101000a81548173ffffffffffffffffffffffffffffffffffffffff021916908373ffffffffffffffffffffffffffffffffffffffff1602179055505b5080806001019150506125f5565b5050505050505050565b600080905060008090505b600480549050811015612a5557600a6004828154811061293457fe5b9060005260206000200154908060018154018082558091505090600182039060005260206000200160009091929091909150555060096003828154811061297757fe5b90600052602060002001549080600181540180825580915050906001820390600052602060002001600090919290919091505550600b600582815481106129ba57fe5b9060005260206000200160009054906101000a900473ffffffffffffffffffffffffffffffffffffffff1690806001815401808255809150509060018203906000526020600020016000909192909190916101000a81548173ffffffffffffffffffffffffffffffffffffffff021916908373ffffffffffffffffffffffffffffffffffffffff160217905550508080600101915050612918565b5060008090505b600a80549050811015612ab55781600a8281548110612a7757fe5b9060005260206000200160008282540192505081905550600a8181548110612a9b57fe5b906000526020600020015491508080600101915050612a5c565b506000905060008090505b600780549050811015612bfd57600d60078281548110612adc57fe5b90600052602060002001549080600181540180825580915050906001820390600052602060002001600090919290919091505550600c60068281548110612b1f57fe5b90600052602060002001549080600181540180825580915050906001820390600052602060002001600090919290919091505550600e60088281548110612b6257fe5b9060005260206000200160009054906101000a900473ffffffffffffffffffffffffffffffffffffffff1690806001815401808255809150509060018203906000526020600020016000909192909190916101000a81548173ffffffffffffffffffffffffffffffffffffffff021916908373ffffffffffffffffffffffffffffffffffffffff160217905550508080600101915050612ac0565b5060008090505b600d80549050811015612c5d5781600d8281548110612c1f57fe5b9060005260206000200160008282540192505081905550600d8181548110612c4357fe5b906000526020600020015491508080600101915050612c04565b5050565b600080905060008090506000600190506000600190505b818015612c825750805b15612f5457600a8481548110612c9457fe5b9060005260206000200154600d8481548110612cac57fe5b90600052602060002001541015612e08576010600d8481548110612ccc57fe5b90600052602060002001549080600181540180825580915050906001820390600052602060002001600090919290919091505550600f60098581548110612d0f57fe5b906000526020600020015490806001815401808255809150509060018203906000526020600020016000909192909190915055506011600b8581548110612d5257fe5b9060005260206000200160009054906101000a900473ffffffffffffffffffffffffffffffffffffffff1690806001815401808255809150509060018203906000526020600020016000909192909190916101000a81548173ffffffffffffffffffffffffffffffffffffffff021916908373ffffffffffffffffffffffffffffffffffffffff160217905550508280600101935050600d80549050831415612e0357600090508280600190039350505b612f4f565b600f60098581548110612e1757fe5b906000526020600020015490806001815401808255809150509060018203906000526020600020016000909192909190915055506010600a8581548110612e5a57fe5b906000526020600020015490806001815401808255809150509060018203906000526020600020016000909192909190915055506011600b8581548110612e9d57fe5b9060005260206000200160009054906101000a900473ffffffffffffffffffffffffffffffffffffffff1690806001815401808255809150509060018203906000526020600020016000909192909190916101000a81548173ffffffffffffffffffffffffffffffffffffffff021916908373ffffffffffffffffffffffffffffffffffffffff160217905550508380600101945050600a80549050841415612f4e57600091508380600190039450505b5b612c78565b5b80156130a6576010600d8481548110612f6a57fe5b90600052602060002001549080600181540180825580915050906001820390600052602060002001600090919290919091505550600f60098581548110612fad57fe5b906000526020600020015490806001815401808255809150509060018203906000526020600020016000909192909190915055506011600b8581548110612ff057fe5b9060005260206000200160009054906101000a900473ffffffffffffffffffffffffffffffffffffffff1690806001815401808255809150509060018203906000526020600020016000909192909190916101000a81548173ffffffffffffffffffffffffffffffffffffffff021916908373ffffffffffffffffffffffffffffffffffffffff160217905550508280600101935050600d805490508314156130a157600090508280600190039350505b612f55565b5b81156131f8576010600a85815481106130bc57fe5b90600052602060002001549080600181540180825580915050906001820390600052602060002001600090919290919091505550600f600985815481106130ff57fe5b906000526020600020015490806001815401808255809150509060018203906000526020600020016000909192909190915055506011600b858154811061314257fe5b9060005260206000200160009054906101000a900473ffffffffffffffffffffffffffffffffffffffff1690806001815401808255809150509060018203906000526020600020016000909192909190916101000a81548173ffffffffffffffffffffffffffffffffffffffff021916908373ffffffffffffffffffffffffffffffffffffffff160217905550508380600101945050600a805490508414156131f357600091508380600190039450505b6130a7565b600191506001905060009350600092505b8180156132135750805b1561358e57600d848154811061322557fe5b9060005260206000200154600a848154811061323d57fe5b90600052602060002001541015613442576013600a848154811061325d57fe5b906000526020600020015490806001815401808255809150509060018203906000526020600020016000909192909190915055506000841415613333576012600090806001815401808255809150509060018203906000526020600020016000909192909190915055506014600090806001815401808255809150509060018203906000526020600020016000909192909190916101000a81548173ffffffffffffffffffffffffffffffffffffffff021916908373ffffffffffffffffffffffffffffffffffffffff1602179055505061341a565b6012600c600186038154811061334557fe5b906000526020600020015490806001815401808255809150509060018203906000526020600020016000909192909190915055506014600e600186038154811061338b57fe5b9060005260206000200160009054906101000a900473ffffffffffffffffffffffffffffffffffffffff1690806001815401808255809150509060018203906000526020600020016000909192909190916101000a81548173ffffffffffffffffffffffffffffffffffffffff021916908373ffffffffffffffffffffffffffffffffffffffff160217905550505b8280600101935050600a8054905083141561343d57600090508280600190039350505b613589565b6013600d858154811061345157fe5b906000526020600020015490806001815401808255809150509060018203906000526020600020016000909192909190915055506012600c858154811061349457fe5b906000526020600020015490806001815401808255809150509060018203906000526020600020016000909192909190915055506014600e85815481106134d757fe5b9060005260206000200160009054906101000a900473ffffffffffffffffffffffffffffffffffffffff1690806001815401808255809150509060018203906000526020600020016000909192909190916101000a81548173ffffffffffffffffffffffffffffffffffffffff021916908373ffffffffffffffffffffffffffffffffffffffff160217905550508380600101945050600d8054905084141561358857600091508380600190039450505b5b613209565b5b80156136e6576013600a84815481106135a457fe5b906000526020600020015490806001815401808255809150509060018203906000526020600020016000909192909190915055506012600c60018603815481106135ea57fe5b906000526020600020015490806001815401808255809150509060018203906000526020600020016000909192909190915055506014600e600186038154811061363057fe5b9060005260206000200160009054906101000a900473ffffffffffffffffffffffffffffffffffffffff1690806001815401808255809150509060018203906000526020600020016000909192909190916101000a81548173ffffffffffffffffffffffffffffffffffffffff021916908373ffffffffffffffffffffffffffffffffffffffff160217905550508280600101935050600a805490508314156136e157600090508280600190039350505b61358f565b5b8115613837576013600d85815481106136fc57fe5b906000526020600020015490806001815401808255809150509060018203906000526020600020016000909192909190915055506012600c858154811061373f57fe5b906000526020600020015490806001815401808255809150509060018203906000526020600020016000909192909190915055506014600e858154811061378257fe5b9060005260206000200160009054906101000a900473ffffffffffffffffffffffffffffffffffffffff1690806001815401808255809150509060018203906000526020600020016000909192909190916101000a81548173ffffffffffffffffffffffffffffffffffffffff021916908373ffffffffffffffffffffffffffffffffffffffff160217905550508380600101945050600d80549050841415613832576000915083806001019450505b6136e7565b50505050565b6000806000905060008090505b600160108054905003811015613db45760008090505b600160138054905003811015613da65761399060405180604001604052806010858154811061388b57fe5b90600052602060002001548152602001600f85815481106138a857fe5b90600052602060002001548152506040518060400160405280601060018701815481106138d157fe5b90600052602060002001548152602001600f60018701815481106138f157fe5b906000526020600020015481525060405180604001604052806013868154811061391757fe5b906000526020600020015481526020016012868154811061393457fe5b906000526020600020015481525060405180604001604052806013600188018154811061395d57fe5b906000526020600020015481526020016012600188018154811061397d57fe5b9060005260206000200154815250614124565b15613d99577f19b167705249ad14a45e892f579bbf591ef155391d7ea63814fc15c46ddd4b5f6040518060400160405280601085815481106139ce57fe5b90600052602060002001548152602001600f85815481106139eb57fe5b9060005260206000200154815250604051806040016040528060106001870181548110613a1457fe5b90600052602060002001548152602001600f6001870181548110613a3457fe5b9060005260206000200154815250604051806040016040528060138681548110613a5a57fe5b9060005260206000200154815260200160128681548110613a7757fe5b9060005260206000200154815250604051806040016040528060136001880181548110613aa057fe5b9060005260206000200154815260200160126001880181548110613ac057fe5b90600052602060002001548152506040518085600260200280838360005b83811015613af9578082015181840152602081019050613ade565b5050505090500184600260200280838360005b83811015613b27578082015181840152602081019050613b0c565b5050505090500183600260200280838360005b83811015613b55578082015181840152602081019050613b3a565b5050505090500182600260200280838360005b83811015613b83578082015181840152602081019050613b68565b5050505090500194505050505060405180910390a16015604051806040016040528060108581548110613bb257fe5b90600052602060002001548152602001600f8581548110613bcf57fe5b9060005260206000200154815250908060018154018082558091505090600182039060005260206000200160009091929091909150906002613c129291906144b8565b50506015604051806040016040528060106001860181548110613c3157fe5b90600052602060002001548152602001600f6001860181548110613c5157fe5b9060005260206000200154815250908060018154018082558091505090600182039060005260206000200160009091929091909150906002613c949291906144b8565b50506015604051806040016040528060138481548110613cb057fe5b9060005260206000200154815260200160128481548110613ccd57fe5b9060005260206000200154815250908060018154018082558091505090600182039060005260206000200160009091929091909150906002613d109291906144b8565b50506015604051806040016040528060136001850181548110613d2f57fe5b9060005260206000200154815260200160126001850181548110613d4f57fe5b9060005260206000200154815250908060018154018082558091505090600182039060005260206000200160009091929091909150906002613d929291906144b8565b5050600192505b8080600101915050613860565b50808060010191505061384a565b508091505090565b600080905060008090505b600480549050811015613efd578360038281548110613de257fe5b90600052602060002001541415613ef057601660058281548110613e0257fe5b9060005260206000200160009054906101000a900473ffffffffffffffffffffffffffffffffffffffff1690806001815401808255809150509060018203906000526020600020016000909192909190916101000a81548173ffffffffffffffffffffffffffffffffffffffff021916908373ffffffffffffffffffffffffffffffffffffffff16021790555050601760048281548110613e9f57fe5b9060005260206000200154908060018154018082558091505090600182039060005260206000200160009091929091909150555060048181548110613ee057fe5b9060005260206000200154820191505b8080600101915050613dc7565b5060008090505b601780549050811015613f6d57601882606460178481548110613f2357fe5b90600052602060002001540281613f3657fe5b0490806001815401808255809150509060018203906000526020600020016000909192909190915055508080600101915050613f04565b506000905060008090505b6006805490508110156140ae578260068281548110613f9357fe5b906000526020600020015414156140a157601960088281548110613fb357fe5b9060005260206000200160009054906101000a900473ffffffffffffffffffffffffffffffffffffffff1690806001815401808255809150509060018203906000526020600020016000909192909190916101000a81548173ffffffffffffffffffffffffffffffffffffffff021916908373ffffffffffffffffffffffffffffffffffffffff16021790555050601a6007828154811061405057fe5b906000526020600020015490806001815401808255809150509060018203906000526020600020016000909192909190915055506007818154811061409157fe5b9060005260206000200154820191505b8080600101915050613f78565b5060008090505b601a8054905081101561411e57601b826064601a84815481106140d457fe5b906000526020600020015402816140e757fe5b04908060018154018082558091505090600182039060005260206000200160009091929091909150555080806001019150506140b5565b50505050565b600061412e614505565b60405180604001604052808660006002811061414657fe5b60200201518860006002811061415857fe5b60200201510381526020018460006002811061417057fe5b60200201518660006002811061418257fe5b6020020151038152509050614195614505565b6040518060400160405280876001600281106141ad57fe5b6020020151896001600281106141bf57fe5b6020020151038152602001856001600281106141d757fe5b6020020151876001600281106141e957fe5b602002015103815250905060006142008383614399565b905060008114156142175760009350505050614391565b61421f614505565b60405180604001604052806142348b8b614399565b81526020016142438989614399565b81525090506000826142558387614399565b8161425c57fe5b05905060008361426c8487614399565b8161427357fe5b05905060008b60006002811061428557fe5b602002015183121580156142aa57508a6000600281106142a157fe5b60200201518313155b905060008c6001600281106142bb57fe5b602002015183131580156142e057508b6001600281106142d757fe5b60200201518312155b905060008b6000600281106142f157fe5b6020020151851215801561431657508a60006002811061430d57fe5b60200201518513155b905060008c60016002811061432757fe5b6020020151851215801561434c57508b60016002811061434357fe5b60200201518513155b90508380156143585750825b80156143615750815b801561436a5750805b156143825760019a5050505050505050505050614391565b60009a50505050505050505050505b949350505050565b6000816000600281106143a857fe5b6020020151836001600281106143ba57fe5b602002015102826001600281106143cd57fe5b6020020151846000600281106143df57fe5b60200201510203905092915050565b604051806040016040528060608152602001606081525090565b828054828255906000526020600020908101928215614444579160200282015b82811115614443578251825591602001919060010190614428565b5b5090506144519190614527565b5090565b50805460008255906000526020600020908101906144739190614527565b50565b50805460008255906000526020600020908101906144949190614527565b50565b50805460008255906000526020600020908101906144b5919061454c565b50565b8280548282559060005260206000209081019282156144f4579160200282015b828111156144f35782518255916020019190600101906144d8565b5b5090506145019190614578565b5090565b6040518060400160405280600290602082028038833980820191505090505090565b61454991905b8082111561454557600081600090555060010161452d565b5090565b90565b61457591905b808211156145715760008181614568919061459d565b50600101614552565b5090565b90565b61459a91905b8082111561459657600081600090555060010161457e565b5090565b90565b50805460008255906000526020600020908101906145bb9190614578565b5056fea265627a7a7231582058d4fb7f70115b8db1b8d3ff44ca55357f9509dfa8ac88f0f136564bbb73ce2c64736f6c63430005100032",
  "source": "// solium-disable linebreak-style\r\npragma solidity >=0.5.0 <0.7.0;\r\n\r\ncontract EnergyTrading {\r\n    address creator;\r\n    mapping (address => uint256) public balanceOf;\r\n\r\n    constructor() public {\r\n        creator = msg.sender;\r\n    }\r\n\r\n    modifier IsCreator (address _user) {\r\n        require(_user == creator, \"User not Creator!\");\r\n        _;\r\n    }\r\n\r\n    function SetTk(uint256 _initialSupply) public IsCreator(msg.sender) {\r\n        balanceOf[creator] = _initialSupply;                                            // Give the creator all initial tokens\r\n    }\r\n\r\n    function Deposit (address _account, uint256 _amount) public IsCreator(msg.sender) {\r\n        balanceOf[_account] += _amount;\r\n    }\r\n\r\n    function Withdraw (address _account, uint256 _amount) public IsCreator(msg.sender) {\r\n        balanceOf[_account] -= _amount;\r\n    }\r\n\r\n    function TransferFrom(address _from, address _to, uint256 _value) public IsCreator(msg.sender) {\r\n        require(balanceOf[_from] >= _value, \"Insufficient balance.\");                   // Check if the sender has enough coins\r\n        require(balanceOf[_to] + _value >= balanceOf[_to], \"Transaction overflow!\");    // Check for overflows\r\n        balanceOf[_from] -= _value;                                                     // Subtract from the sender\r\n        balanceOf[_to] += _value;                                                       // Add the same to the recipient\r\n    }\r\n\r\n    /////////////\r\n    //   bid   //\r\n    /////////////\r\n    struct bid_struct {\r\n        uint256[] volumn;\r\n        uint256[] price;\r\n    }\r\n    // time => type(buy/sell) => user_address => bid_struct\r\n    mapping (string => mapping (string => mapping (address => bid_struct))) bids;\r\n\r\n    event bid_log(address _user, string _bid_time, string _bid_type, uint256[] _volumn, uint256[] _price);\r\n\r\n    function bid(\r\n        address _user,\r\n        string memory _bid_time,\r\n        string memory _bid_type,\r\n        uint256[] memory _volumn,\r\n        uint256[] memory _price\r\n    ) public IsCreator(msg.sender) {\r\n        bids[_bid_time][_bid_type][_user] = bid_struct({\r\n            volumn: _volumn, price: _price\r\n        });\r\n        emit bid_log(_user, _bid_time, _bid_type, _volumn, _price);\r\n    }\r\n\r\n    event get_log(uint256[] _volumn, uint256[] _price);\r\n\r\n    function getBid(address _user, string memory _bid_time, string memory _bid_type) public returns(uint256[] memory, uint256[] memory){\r\n        bid_struct memory the_bid = bids[_bid_time][_bid_type][_user];\r\n        emit get_log(the_bid.volumn, the_bid.price);\r\n        return (the_bid.volumn, the_bid.price);\r\n    }\r\n\r\n    /////////////\r\n    //  match  //\r\n    /////////////\r\n\r\n    uint256[] buy_prices;\r\n    uint256[] buy_volumes;\r\n    address[] buy_users;\r\n    uint256[] sell_prices;\r\n    uint256[] sell_volumes;\r\n    address[] sell_users;\r\n\r\n    uint256[] ab_prices;\r\n    uint256[] ab_volumes;\r\n    address[] ab_users;\r\n    uint256[] as_prices;\r\n    uint256[] as_volumes;\r\n    address[] as_users;\r\n\r\n\r\n    uint256[] mb_prices;\r\n    uint256[] mb_volumes;\r\n    address[] mb_users;\r\n    uint256[] ms_prices;\r\n    uint256[] ms_volumes;\r\n    address[] ms_users;\r\n\r\n    int256[][] line_points;\r\n\r\n    address[] matched_buy_users;\r\n    uint256[] matched_buy_volumes;\r\n    uint256[] matched_buy_ratios;\r\n    address[] matched_sell_users;\r\n    uint256[] matched_sell_volumes;\r\n    uint256[] matched_sell_ratios;\r\n\r\n    event array_log(uint256[] _volume, uint256[] _price, address[] _users);\r\n    event line_pts(\r\n        int256[2] l1p1,\r\n        int256[2] l1p2,\r\n        int256[2] l2p1,\r\n        int256[2] l2p2\r\n    );\r\n    event match_result(\r\n        bool,\r\n        uint256,\r\n        uint256,\r\n        address[],\r\n        uint256[],\r\n        address[],\r\n        uint256[]\r\n    );\r\n\r\n    function getArrayLog() public {\r\n        emit array_log(buy_volumes, buy_prices, buy_users);\r\n        emit array_log(sell_volumes, sell_prices, sell_users);\r\n    }\r\n\r\n    function match_bids(\r\n        address[] memory _users,\r\n        string memory _bid_time\r\n    ) public IsCreator(msg.sender) {\r\n        // GET DEMAND-REQUEST LINES\r\n        _clear_match_array();                       // Clear array for each match event\r\n        _combine_match_array(_bid_time, _users);    // Combine bids for every user\r\n        _sort_array();                              // Sorting array\r\n        _accumulate_array();                        // Accumulate bids\r\n        _merge_array();                             // Merge bids\r\n        getArrayLog();\r\n        bool matched = _find_intersection();        // Finding match intersection\r\n        _find_shares(                               // Split bids by margin\r\n            uint256(line_points[0][1]),\r\n            uint256(line_points[2][1])\r\n        );\r\n\r\n        emit match_result(\r\n            matched,\r\n            uint256(line_points[2][0]),\r\n            uint256(line_points[2][1]),\r\n            matched_buy_users,\r\n            matched_buy_ratios,\r\n            matched_sell_users,\r\n            matched_sell_ratios\r\n        );\r\n    }\r\n\r\n    function _clear_match_array() private {\r\n        // Reset dynamic arrays for match bids\r\n        delete buy_prices;\r\n        delete buy_volumes;\r\n        delete buy_users;\r\n        delete sell_prices;\r\n        delete sell_volumes;\r\n        delete sell_users;\r\n\r\n        delete ab_prices;\r\n        delete ab_volumes;\r\n        delete ab_users;\r\n        delete as_prices;\r\n        delete as_volumes;\r\n        delete as_users;\r\n\r\n        delete mb_prices;\r\n        delete mb_volumes;\r\n        delete mb_users;\r\n        delete ms_prices;\r\n        delete ms_volumes;\r\n        delete ms_users;\r\n\r\n        delete matched_buy_users;\r\n        delete matched_buy_volumes;\r\n        delete matched_buy_ratios;\r\n        delete matched_sell_users;\r\n        delete matched_sell_volumes;\r\n        delete matched_sell_ratios;\r\n\r\n        delete line_points;\r\n    }\r\n\r\n    function _combine_match_array(\r\n        string memory _bid_time, address[] memory _users\r\n    ) private {\r\n        // users' buys\r\n        for(uint256 i = 0; i < _users.length; i++) {\r\n            uint256[] memory prices;\r\n            uint256[] memory volumes;\r\n            bid_struct memory user_buy_bids = bids[_bid_time][\"buy\"][_users[i]];\r\n            prices = user_buy_bids.price;\r\n            volumes = user_buy_bids.volumn;\r\n\r\n            for(uint256 j = 0; j < prices.length; j++) {\r\n                buy_prices.push(prices[j]);\r\n                buy_volumes.push(volumes[j]);\r\n                buy_users.push(_users[i]);\r\n            }\r\n        }\r\n\r\n        // users' sells\r\n        for(uint256 i = 0; i < _users.length; i++) {\r\n            uint256[] memory prices;\r\n            uint256[] memory volumes;\r\n            bid_struct memory user_sell_bids = bids[_bid_time][\"sell\"][_users[i]];\r\n            prices = user_sell_bids.price;\r\n            volumes = user_sell_bids.volumn;\r\n\r\n            for(uint256 j = 0; j < prices.length; j++) {\r\n                sell_prices.push(prices[j]);\r\n                sell_volumes.push(volumes[j]);\r\n                sell_users.push(_users[i]);\r\n            }\r\n        }\r\n    }\r\n\r\n    // insertion sort\r\n    function _sort_array() private {\r\n        uint256 j;\r\n        uint256 b_price_key;\r\n        uint256 b_volume_key;\r\n        address b_user_key;\r\n        for (uint256 i = 1; i < buy_prices.length; i++) {\r\n            b_price_key = buy_prices[i];\r\n            b_volume_key = buy_volumes[i];\r\n            b_user_key = buy_users[i];\r\n            j = i - 1;\r\n            bool flag = false;\r\n            while (j >= 0 && buy_prices[j] < b_price_key)\r\n            {\r\n                buy_prices[j + 1] = buy_prices[j];\r\n                buy_volumes[j + 1] = buy_volumes[j];\r\n                buy_users[j + 1] = buy_users[j];\r\n                if(j == 0) {\r\n                    flag = true;\r\n                    break;\r\n                } else {\r\n                    j = j - 1;\r\n                }\r\n            }\r\n            if(flag) {\r\n                buy_prices[0] = b_price_key;\r\n                buy_volumes[0] = b_volume_key;\r\n                buy_users[0] = b_user_key;\r\n            } else {\r\n                buy_prices[j + 1] = b_price_key;\r\n                buy_volumes[j + 1] = b_volume_key;\r\n                buy_users[j + 1] = b_user_key;\r\n            }\r\n        }\r\n\r\n        uint256 s_price_key;\r\n        uint256 s_volume_key;\r\n        address s_user_key;\r\n        for (uint256 i = 1; i < sell_prices.length; i++) {\r\n            s_price_key = sell_prices[i];\r\n            s_volume_key = sell_volumes[i];\r\n            s_user_key = sell_users[i];\r\n            j = i - 1;\r\n            bool flag = false;\r\n            while (j >= 0 && sell_prices[j] > s_price_key)\r\n            {\r\n                sell_prices[j + 1] = sell_prices[j];\r\n                sell_volumes[j + 1] = sell_volumes[j];\r\n                sell_users[j + 1] = sell_users[j];\r\n                if(j == 0) {\r\n                    flag = true;\r\n                    break;\r\n                } else {\r\n                    j = j - 1;\r\n                }\r\n            }\r\n            if(flag) {\r\n                sell_prices[0] = s_price_key;\r\n                sell_volumes[0] = s_volume_key;\r\n                sell_users[0] = s_user_key;\r\n            } else {\r\n                sell_prices[j + 1] = s_price_key;\r\n                sell_volumes[j + 1] = s_volume_key;\r\n                sell_users[j + 1] = s_user_key;\r\n            }\r\n        }\r\n    }\r\n\r\n    function _accumulate_array() private {\r\n        uint256 curr_volume = 0;\r\n        for (uint256 i = 0; i < buy_volumes.length; i++) {\r\n            ab_volumes.push(buy_volumes[i]);\r\n            ab_prices.push(buy_prices[i]);\r\n            ab_users.push(buy_users[i]);\r\n        }\r\n        for (uint256 i = 0; i < ab_volumes.length; i++) {\r\n            ab_volumes[i] += curr_volume;\r\n            curr_volume = ab_volumes[i];\r\n        }\r\n\r\n        curr_volume = 0;\r\n        for (uint256 i = 0; i < sell_volumes.length; i++) {\r\n            as_volumes.push(sell_volumes[i]);\r\n            as_prices.push(sell_prices[i]);\r\n            as_users.push(sell_users[i]);\r\n        }\r\n        for (uint256 i = 0; i < as_volumes.length; i++) {\r\n            as_volumes[i] += curr_volume;\r\n            curr_volume = as_volumes[i];\r\n        }\r\n    }\r\n\r\n    function _merge_array() private {\r\n        uint256 i = 0;\r\n        uint256 j = 0;\r\n\r\n        bool loop1 = true;\r\n        bool loop2 = true;\r\n\r\n        while (loop1 && loop2) {\r\n            if(as_volumes[j] < ab_volumes[i]) {\r\n                mb_volumes.push(as_volumes[j]);\r\n                mb_prices.push(ab_prices[i]);\r\n                mb_users.push(ab_users[i]);\r\n                j++;\r\n                if(j == as_volumes.length) {\r\n                    loop2 = false;\r\n                    j--;\r\n                }\r\n            } else {\r\n                mb_prices.push(ab_prices[i]);\r\n                mb_volumes.push(ab_volumes[i]);\r\n                mb_users.push(ab_users[i]);\r\n                i++;\r\n                if(i == ab_volumes.length) {\r\n                    loop1 = false;\r\n                    i--;\r\n                }\r\n            }\r\n        }\r\n        while(loop2) {\r\n            mb_volumes.push(as_volumes[j]);\r\n            mb_prices.push(ab_prices[i]);\r\n            mb_users.push(ab_users[i]);\r\n            j++;\r\n            if(j == as_volumes.length) {\r\n                loop2 = false;\r\n                j--;\r\n            }\r\n        }\r\n        while(loop1) {\r\n            mb_volumes.push(ab_volumes[i]);\r\n            mb_prices.push(ab_prices[i]);\r\n            mb_users.push(ab_users[i]);\r\n            i++;\r\n            if(i == ab_volumes.length) {\r\n                loop1 = false;\r\n                i--;\r\n            }\r\n        }\r\n\r\n        loop1 = true;\r\n        loop2 = true;\r\n        i = 0;\r\n        j = 0;\r\n        while (loop1 && loop2) {\r\n            if(ab_volumes[j] < as_volumes[i]) {\r\n                ms_volumes.push(ab_volumes[j]);\r\n                if(i == 0) {\r\n                    ms_prices.push(0);\r\n                    ms_users.push(address(0));\r\n                } else {\r\n                    ms_prices.push(as_prices[i-1]);\r\n                    ms_users.push(as_users[i-1]);\r\n                }\r\n                j++;\r\n                if(j == ab_volumes.length) {\r\n                    loop2 = false;\r\n                    j--;\r\n                }\r\n            } else {\r\n                ms_volumes.push(as_volumes[i]);\r\n                ms_prices.push(as_prices[i]);\r\n                ms_users.push(as_users[i]);\r\n                i++;\r\n                if(i == as_volumes.length) {\r\n                    loop1 = false;\r\n                    i--;\r\n                }\r\n            }\r\n        }\r\n        while(loop2) {\r\n            ms_volumes.push(ab_volumes[j]);\r\n            ms_prices.push(as_prices[i-1]);\r\n            ms_users.push(as_users[i-1]);\r\n            j++;\r\n            if(j == ab_volumes.length) {\r\n                loop2 = false;\r\n                j--;\r\n            }\r\n        }\r\n        while(loop1) {\r\n            ms_volumes.push(as_volumes[i]);\r\n            ms_prices.push(as_prices[i]);\r\n            ms_users.push(as_users[i]);\r\n            i++;\r\n            if(i == as_volumes.length) {\r\n                loop1 = false;\r\n                i++;\r\n            }\r\n        }\r\n    }\r\n\r\n    function _det(int256[2] memory a, int256[2] memory b) private pure returns(int256) {\r\n        return a[0] * b[1] - a[1] * b[0];\r\n    }\r\n\r\n    function _line_intersection(\r\n        int256[2] memory l1p1,\r\n        int256[2] memory l1p2,\r\n        int256[2] memory l2p1,\r\n        int256[2] memory l2p2\r\n    ) private pure returns(bool) {\r\n        int256[2] memory xdiff = [l1p1[0] - l1p2[0], l2p1[0] - l2p2[0]];\r\n        int256[2] memory ydiff = [l1p1[1] - l1p2[1], l2p1[1] - l2p2[1]];\r\n\r\n        int256 div = _det(xdiff, ydiff);\r\n        if(div == 0) {\r\n            return false;\r\n        }\r\n\r\n        int256[2] memory d = [_det(l1p1, l1p2), _det(l2p1, l2p2)];\r\n        int256 x = _det(d, xdiff) / div;\r\n        int256 y = _det(d, ydiff) / div;\r\n\r\n        bool c1 = x >= l1p1[0] && x <= l1p2[0];\r\n        bool c2 = y <= l1p1[1] && y >= l1p2[1];\r\n        bool c3 = x >= l2p1[0] && x <= l2p2[0];\r\n        bool c4 = y >= l2p1[1] && y <= l2p2[1];\r\n        if(c1 && c2 && c3 && c4) {\r\n            return true;\r\n        } else {\r\n            return false;\r\n        }\r\n    }\r\n\r\n    function _find_intersection() private returns(bool) {\r\n        bool intersection = false;\r\n        for (uint256 i = 0; i < mb_volumes.length - 1; i++) {\r\n            for (uint256 j = 0; j < ms_volumes.length - 1; j++) {\r\n                if(_line_intersection(\r\n                    [int256(mb_volumes[i]), int256(mb_prices[i])],\r\n                    [int256(mb_volumes[i+1]), int256(mb_prices[i+1])],\r\n                    [int256(ms_volumes[j]), int256(ms_prices[j])],\r\n                    [int256(ms_volumes[j+1]), int256(ms_prices[j+1])]\r\n                )) {\r\n                    emit line_pts(\r\n                        [int256(mb_volumes[i]), int256(mb_prices[i])],\r\n                        [int256(mb_volumes[i+1]), int256(mb_prices[i+1])],\r\n                        [int256(ms_volumes[j]), int256(ms_prices[j])],\r\n                        [int256(ms_volumes[j+1]), int256(ms_prices[j+1])]\r\n                    );\r\n                    line_points.push([int256(mb_volumes[i]), int256(mb_prices[i])]);\r\n                    line_points.push([int256(mb_volumes[i+1]), int256(mb_prices[i+1])]);\r\n                    line_points.push([int256(ms_volumes[j]), int256(ms_prices[j])]);\r\n                    line_points.push([int256(ms_volumes[j+1]), int256(ms_prices[j+1])]);\r\n                    intersection = true;\r\n                }\r\n            }\r\n        }\r\n        return intersection;\r\n    }\r\n\r\n    function _find_shares(uint256 _buy_target_price, uint256 _sell_target_price) private {\r\n        uint256 total_volume = 0;\r\n        for (uint256 i = 0; i < buy_volumes.length; i++) {\r\n            if(buy_prices[i] == _buy_target_price) {\r\n                matched_buy_users.push(buy_users[i]);\r\n                matched_buy_volumes.push(buy_volumes[i]);\r\n                total_volume += buy_volumes[i];\r\n            }\r\n        }\r\n        for (uint256 i = 0; i < matched_buy_volumes.length; i++) {\r\n            matched_buy_ratios.push(matched_buy_volumes[i] * 100 / total_volume);\r\n        }\r\n        total_volume = 0;\r\n        for (uint256 i = 0; i < sell_prices.length; i++) {\r\n            if(sell_prices[i] == _sell_target_price) {\r\n                matched_sell_users.push(sell_users[i]);\r\n                matched_sell_volumes.push(sell_volumes[i]);\r\n                total_volume += sell_volumes[i];\r\n            }\r\n        }\r\n        for (uint256 i = 0; i < matched_sell_volumes.length; i++) {\r\n            matched_sell_ratios.push(matched_sell_volumes[i] * 100 / total_volume);\r\n        }\r\n    }\r\n}\r\n",
  "sourcePath": "/home/changchaishi/MyWorkSpace/DR-ET-PLATFORM/et-smart-contract-truffle/contracts/EnergyTrading.sol",
  "compiler": {
    "name": "solc",
    "version": "0.5.16+commit.9c3226ce.Emscripten.clang"
  },
  "schemaVersion": "3.0.23",
  "updatedAt": "2020-03-15T10:20:55.743Z",
  "networkType": "ethereum",
  "devdoc": {
    "methods": {}
  },
  "userdoc": {
    "methods": {}
  }
}